:1000000000308A00F0280000F337A0302036611D50
:10001000A01264102000F33720212036611DA012A9
:10002000641020002430840083130008031926285C
:100030000130F800F701F70B1B28F80B1A284A309B
:10004000F700F70B21282428800B182808000B083C
:10005000A4008B13831603178C170C1400000000E8
:1000600083120313A41B8B1703185F2803170C08B4
:100070007F390313A40003170D080313A50003170A
:100080000F080313A60024080C1E44289900250815
:1000900003178D000313260803178F0003130B08A3
:1000A000A7008B13831603178C170C140000000095
:1000B00083120313A71B8B17A30B5F287F2803173B
:1000C0000C0D0E0D7F390313A40003170D08031345
:1000D000A50003170F080313A60024080C1E6E28A2
:1000E0009900250803178D000313260803178F00B6
:1000F0008D0A03198F0A03100313A30B2728080086
:100100002A08F8012902031888282908F7009428EA
:10011000F7010830AB00A90DF70D2A087702031884
:10012000F700F80DAB0B8B2808002030241E303070
:10013000A5002308F700A31FA528F709F70A7708E9
:10014000A3002D30A500A41724142308A9006430AF
:10015000AA0080207708A30030307807A600230883
:10016000A9000A30AA00802030307707A80030307C
:100170007807A7002508F700303026020319C428A5
:10018000A414A41B2415D8282508A6002030A500F7
:10019000303027020319D0282414A41BA414D82813
:1001A000031D2414031DD8282608A7002030A6000C
:1001B0002419DF28A418E3282418E728EB282508A9
:1001C0000C1EE028990026080C1EE4289900270838
:1001D0000C1EE828990028080C1EEC28990008003D
:1001E00003081F398300193083169900A630980040
:1001F00090308312980083161F149F141F159F11AF
:1002000007309C00831319309900A6309800903075
:1002100083129800FF30831686008312A101A20189
:10022000060803191829A10A0130A4001220102978
:100230000608031D2029A20A0130A4001220182953
:10024000043003178D0000308F00031009300313B2
:10025000A30027202108A3001830A40095202030F7
:100260000C1E3029990020300C1E342999000B30C7
:1002700003178D0000308F00031009300313A30013
:1002800027202208A3001830A400952020300C1E3F
:100290004729990020300C1E4B2999000430A300F7
:0E02A000FA30A4001220A30B5029202963007D
:02400E00733FFE
:00000001FF
;PIC16F877A
;CRC=1B33  CREATED="21-Thg2-18 11:03"
